{
  "_format": "hh-sol-artifact-1",
  "contractName": "TokenExchange",
  "sourceName": "contracts/exchange.sol",
  "abi": [
    {
      "inputs": [],
      "stateMutability": "nonpayable",
      "type": "constructor"
    },
    {
      "anonymous": false,
      "inputs": [
        {
          "indexed": true,
          "internalType": "address",
          "name": "previousOwner",
          "type": "address"
        },
        {
          "indexed": true,
          "internalType": "address",
          "name": "newOwner",
          "type": "address"
        }
      ],
      "name": "OwnershipTransferred",
      "type": "event"
    },
    {
      "inputs": [
        {
          "internalType": "uint256",
          "name": "max_exchange_rate",
          "type": "uint256"
        },
        {
          "internalType": "uint256",
          "name": "min_exchange_rate",
          "type": "uint256"
        }
      ],
      "name": "addLiquidity",
      "outputs": [],
      "stateMutability": "payable",
      "type": "function"
    },
    {
      "inputs": [
        {
          "internalType": "uint256",
          "name": "amountTokens",
          "type": "uint256"
        }
      ],
      "name": "createPool",
      "outputs": [],
      "stateMutability": "payable",
      "type": "function"
    },
    {
      "inputs": [],
      "name": "exchange_name",
      "outputs": [
        {
          "internalType": "string",
          "name": "",
          "type": "string"
        }
      ],
      "stateMutability": "view",
      "type": "function"
    },
    {
      "inputs": [],
      "name": "getSwapFee",
      "outputs": [
        {
          "internalType": "uint256",
          "name": "",
          "type": "uint256"
        },
        {
          "internalType": "uint256",
          "name": "",
          "type": "uint256"
        }
      ],
      "stateMutability": "view",
      "type": "function"
    },
    {
      "inputs": [],
      "name": "owner",
      "outputs": [
        {
          "internalType": "address",
          "name": "",
          "type": "address"
        }
      ],
      "stateMutability": "view",
      "type": "function"
    },
    {
      "inputs": [
        {
          "internalType": "uint256",
          "name": "max_exchange_rate",
          "type": "uint256"
        },
        {
          "internalType": "uint256",
          "name": "min_exchange_rate",
          "type": "uint256"
        }
      ],
      "name": "removeAllLiquidity",
      "outputs": [],
      "stateMutability": "payable",
      "type": "function"
    },
    {
      "inputs": [
        {
          "internalType": "uint256",
          "name": "amountETH",
          "type": "uint256"
        },
        {
          "internalType": "uint256",
          "name": "max_exchange_rate",
          "type": "uint256"
        },
        {
          "internalType": "uint256",
          "name": "min_exchange_rate",
          "type": "uint256"
        }
      ],
      "name": "removeLiquidity",
      "outputs": [],
      "stateMutability": "payable",
      "type": "function"
    },
    {
      "inputs": [],
      "name": "renounceOwnership",
      "outputs": [],
      "stateMutability": "nonpayable",
      "type": "function"
    },
    {
      "inputs": [
        {
          "internalType": "uint256",
          "name": "max_exchange_rate",
          "type": "uint256"
        }
      ],
      "name": "swapETHForTokens",
      "outputs": [],
      "stateMutability": "payable",
      "type": "function"
    },
    {
      "inputs": [
        {
          "internalType": "uint256",
          "name": "amountTokens",
          "type": "uint256"
        },
        {
          "internalType": "uint256",
          "name": "max_exchange_rate",
          "type": "uint256"
        }
      ],
      "name": "swapTokensForETH",
      "outputs": [],
      "stateMutability": "payable",
      "type": "function"
    },
    {
      "inputs": [],
      "name": "token",
      "outputs": [
        {
          "internalType": "contract Token",
          "name": "",
          "type": "address"
        }
      ],
      "stateMutability": "view",
      "type": "function"
    },
    {
      "inputs": [
        {
          "internalType": "address",
          "name": "newOwner",
          "type": "address"
        }
      ],
      "name": "transferOwnership",
      "outputs": [],
      "stateMutability": "nonpayable",
      "type": "function"
    }
  ],
  "bytecode": "0x60806040526040518060400160405280600a81526020017f6d61737465725377617000000000000000000000000000000000000000000000815250600190816200004a9190620004b5565b50735fbdb2315678afecb367f032d93f642f64180aa3600260006101000a81548173ffffffffffffffffffffffffffffffffffffffff021916908373ffffffffffffffffffffffffffffffffffffffff160217905550600260009054906101000a900473ffffffffffffffffffffffffffffffffffffffff16600360006101000a81548173ffffffffffffffffffffffffffffffffffffffff021916908373ffffffffffffffffffffffffffffffffffffffff160217905550600060045560006005556003600855606460095564e8d4a51000600b556000600c60006101000a81548160ff0219169083151502179055503480156200014857600080fd5b50620001696200015d6200016f60201b60201c565b6200017760201b60201c565b6200059c565b600033905090565b60008060009054906101000a900473ffffffffffffffffffffffffffffffffffffffff169050816000806101000a81548173ffffffffffffffffffffffffffffffffffffffff021916908373ffffffffffffffffffffffffffffffffffffffff1602179055508173ffffffffffffffffffffffffffffffffffffffff168173ffffffffffffffffffffffffffffffffffffffff167f8be0079c531659141344cd1fd0a4f28419497f9722a3daafe3b4186f6b6457e060405160405180910390a35050565b600081519050919050565b7f4e487b7100000000000000000000000000000000000000000000000000000000600052604160045260246000fd5b7f4e487b7100000000000000000000000000000000000000000000000000000000600052602260045260246000fd5b60006002820490506001821680620002bd57607f821691505b602082108103620002d357620002d262000275565b5b50919050565b60008190508160005260206000209050919050565b60006020601f8301049050919050565b600082821b905092915050565b6000600883026200033d7fffffffffffffffffffffffffffffffffffffffffffffffffffffffffffffffff82620002fe565b620003498683620002fe565b95508019841693508086168417925050509392505050565b6000819050919050565b6000819050919050565b600062000396620003906200038a8462000361565b6200036b565b62000361565b9050919050565b6000819050919050565b620003b28362000375565b620003ca620003c1826200039d565b8484546200030b565b825550505050565b600090565b620003e1620003d2565b620003ee818484620003a7565b505050565b5b8181101562000416576200040a600082620003d7565b600181019050620003f4565b5050565b601f82111562000465576200042f81620002d9565b6200043a84620002ee565b810160208510156200044a578190505b620004626200045985620002ee565b830182620003f3565b50505b505050565b600082821c905092915050565b60006200048a600019846008026200046a565b1980831691505092915050565b6000620004a5838362000477565b9150826002028217905092915050565b620004c0826200023b565b67ffffffffffffffff811115620004dc57620004db62000246565b5b620004e88254620002a4565b620004f58282856200041a565b600060209050601f8311600181146200052d576000841562000518578287015190505b62000524858262000497565b86555062000594565b601f1984166200053d86620002d9565b60005b82811015620005675784890151825560018201915060208501945060208101905062000540565b8683101562000587578489015162000583601f89168262000477565b8355505b6001600288020188555050505b505050505050565b61302880620005ac6000396000f3fe6080604052600436106100a75760003560e01c80639cd441da116100645780639cd441da1461015e578063a22280a61461017a578063d4cadf6814610196578063f2fde38b146101c2578063f694f7d1146101eb578063fc0c546a14610216576100a7565b80632eab2841146100ac57806358ad6de4146100c8578063715018a6146100e45780638259e6a0146100fb578063857620e1146101175780638da5cb5b14610133575b600080fd5b6100c660048036038101906100c19190611f9b565b610241565b005b6100e260048036038101906100dd9190611fc8565b61052a565b005b3480156100f057600080fd5b506100f9610604565b005b61011560048036038101906101109190611f9b565b610618565b005b610131600480360381019061012c9190612008565b610979565b005b34801561013f57600080fd5b50610148611077565b604051610155919061209c565b60405180910390f35b61017860048036038101906101739190611fc8565b6110a0565b005b610194600480360381019061018f9190611fc8565b611775565b005b3480156101a257600080fd5b506101ab611b91565b6040516101b99291906120c6565b60405180910390f35b3480156101ce57600080fd5b506101e960048036038101906101e4919061211b565b611ba2565b005b3480156101f757600080fd5b50610200611c25565b60405161020d91906121d8565b60405180910390f35b34801561022257600080fd5b5061022b611cb3565b6040516102389190612259565b60405180910390f35b600c60009054906101000a900460ff161561025b57600080fd5b6001600c60006101000a81548160ff021916908315150217905550600034116102b9576040517f08c379a00000000000000000000000000000000000000000000000000000000081526004016102b0906122e6565b60405180910390fd5b6000346005546102c99190612335565b600a546102d69190612398565b6004546102e391906123c9565b90506000600954600854836102f891906123fd565b6103029190612398565b9050808261031091906123c9565b915060018260045461032291906123c9565b1015610363576040517f08c379a000000000000000000000000000000000000000000000000000000000815260040161035a906124b1565b60405180910390fd5b828260045461037291906123c9565b60055461037f9190612398565b11156103c0576040517f08c379a00000000000000000000000000000000000000000000000000000000081526004016103b790612543565b60405180910390fd5b47600581905550600360009054906101000a900473ffffffffffffffffffffffffffffffffffffffff1673ffffffffffffffffffffffffffffffffffffffff1663a9059cbb33846040518363ffffffff1660e01b8152600401610424929190612563565b6020604051808303816000875af1158015610443573d6000803e3d6000fd5b505050506040513d601f19601f8201168201806040525081019061046791906125c4565b50600360009054906101000a900473ffffffffffffffffffffffffffffffffffffffff1673ffffffffffffffffffffffffffffffffffffffff166370a08231306040518263ffffffff1660e01b81526004016104c3919061209c565b602060405180830381865afa1580156104e0573d6000803e3d6000fd5b505050506040513d601f19601f820116820180604052508101906105049190612606565b6004819055506000600c60006101000a81548160ff021916908315150217905550505050565b6000600b54600454600660003373ffffffffffffffffffffffffffffffffffffffff1673ffffffffffffffffffffffffffffffffffffffff1681526020019081526020016000205461057c91906123fd565b6105869190612398565b905060018160045461059891906123c9565b10156105ae576001816105ab91906123c9565b90505b6000600454600554836105c191906123fd565b6105cb9190612398565b90506001816005546105dd91906123c9565b10156105f3576001816105f091906123c9565b90505b6105fe818585610979565b50505050565b61060c611cd9565b6106166000611d57565b565b610620611cd9565b600060045414610665576040517f08c379a000000000000000000000000000000000000000000000000000000000815260040161065c9061267f565b60405180910390fd5b6000600554146106aa576040517f08c379a00000000000000000000000000000000000000000000000000000000081526004016106a1906126eb565b60405180910390fd5b600034116106ed576040517f08c379a00000000000000000000000000000000000000000000000000000000081526004016106e490612757565b60405180910390fd5b6000600360009054906101000a900473ffffffffffffffffffffffffffffffffffffffff1673ffffffffffffffffffffffffffffffffffffffff166370a08231336040518263ffffffff1660e01b815260040161074a919061209c565b602060405180830381865afa158015610767573d6000803e3d6000fd5b505050506040513d601f19601f8201168201806040525081019061078b9190612606565b9050808211156107d0576040517f08c379a00000000000000000000000000000000000000000000000000000000081526004016107c7906127e9565b60405180910390fd5b60008211610813576040517f08c379a000000000000000000000000000000000000000000000000000000000815260040161080a90612855565b60405180910390fd5b600360009054906101000a900473ffffffffffffffffffffffffffffffffffffffff1673ffffffffffffffffffffffffffffffffffffffff166323b872dd3330856040518463ffffffff1660e01b815260040161087293929190612875565b6020604051808303816000875af1158015610891573d6000803e3d6000fd5b505050506040513d601f19601f820116820180604052508101906108b591906125c4565b50600360009054906101000a900473ffffffffffffffffffffffffffffffffffffffff1673ffffffffffffffffffffffffffffffffffffffff166370a08231306040518263ffffffff1660e01b8152600401610911919061209c565b602060405180830381865afa15801561092e573d6000803e3d6000fd5b505050506040513d601f19601f820116820180604052508101906109529190612606565b6004819055503460058190555060055460045461096f91906123fd565b600a819055505050565b600c60009054906101000a900460ff161561099357600080fd5b6001600c60006101000a81548160ff0219169083151502179055506000600554600454856109c191906123fd565b6109cb9190612398565b9050600454600660003373ffffffffffffffffffffffffffffffffffffffff1673ffffffffffffffffffffffffffffffffffffffff16815260200190815260200160002054610a1a91906123fd565b600b5482610a2891906123fd565b1115610a69576040517f08c379a0000000000000000000000000000000000000000000000000000000008152600401610a609061291e565b60405180910390fd5b8184600554610a7891906123c9565b82600454610a8691906123c9565b610a909190612398565b1015610ad1576040517f08c379a0000000000000000000000000000000000000000000000000000000008152600401610ac89061298a565b60405180910390fd5b8284600554610ae091906123c9565b82600454610aee91906123c9565b610af89190612398565b1115610b39576040517f08c379a0000000000000000000000000000000000000000000000000000000008152600401610b30906129f6565b60405180910390fd5b60006004549050600082600454610b5091906123c9565b11610b90576040517f08c379a0000000000000000000000000000000000000000000000000000000008152600401610b8790612a88565b60405180910390fd5b600085600554610ba091906123c9565b11610be0576040517f08c379a0000000000000000000000000000000000000000000000000000000008152600401610bd790612b1a565b60405180910390fd5b600360009054906101000a900473ffffffffffffffffffffffffffffffffffffffff1673ffffffffffffffffffffffffffffffffffffffff1663a9059cbb33846040518363ffffffff1660e01b8152600401610c3d929190612563565b6020604051808303816000875af1158015610c5c573d6000803e3d6000fd5b505050506040513d601f19601f82011682018060405250810190610c8091906125c4565b50600360009054906101000a900473ffffffffffffffffffffffffffffffffffffffff1673ffffffffffffffffffffffffffffffffffffffff166370a08231306040518263ffffffff1660e01b8152600401610cdc919061209c565b602060405180830381865afa158015610cf9573d6000803e3d6000fd5b505050506040513d601f19601f82011682018060405250810190610d1d9190612606565b6004819055503373ffffffffffffffffffffffffffffffffffffffff166108fc869081150290604051600060405180830381858888f19350505050158015610d69573d6000803e3d6000fd5b5047600581905550600554600454610d8191906123fd565b600a81905550600454600b5483610d9891906123fd565b82600660003373ffffffffffffffffffffffffffffffffffffffff1673ffffffffffffffffffffffffffffffffffffffff16815260200190815260200160002054610de391906123fd565b610ded91906123c9565b610df79190612398565b600660003373ffffffffffffffffffffffffffffffffffffffff1673ffffffffffffffffffffffffffffffffffffffff168152602001908152602001600020819055506000805b600780549050811015611002573373ffffffffffffffffffffffffffffffffffffffff1660078281548110610e7657610e75612b3a565b5b9060005260206000200160009054906101000a900473ffffffffffffffffffffffffffffffffffffffff1673ffffffffffffffffffffffffffffffffffffffff1603610ec457809150610fef565b826006600060078481548110610edd57610edc612b3a565b5b9060005260206000200160009054906101000a900473ffffffffffffffffffffffffffffffffffffffff1673ffffffffffffffffffffffffffffffffffffffff1673ffffffffffffffffffffffffffffffffffffffff1681526020019081526020016000206000828254610f5191906123fd565b925050819055506004546006600060078481548110610f7357610f72612b3a565b5b9060005260206000200160009054906101000a900473ffffffffffffffffffffffffffffffffffffffff1673ffffffffffffffffffffffffffffffffffffffff1673ffffffffffffffffffffffffffffffffffffffff1681526020019081526020016000206000828254610fe79190612398565b925050819055505b8080610ffa90612b69565b915050610e3e565b506000600660003373ffffffffffffffffffffffffffffffffffffffff1673ffffffffffffffffffffffffffffffffffffffff16815260200190815260200160002054036110545761105381611e1b565b5b6000600c60006101000a81548160ff021916908315150217905550505050505050565b60008060009054906101000a900473ffffffffffffffffffffffffffffffffffffffff16905090565b6000349050600081116110e8576040517f08c379a00000000000000000000000000000000000000000000000000000000081526004016110df90612c23565b60405180910390fd5b6000600554600454836110fb91906123fd565b6111059190612398565b9050600360009054906101000a900473ffffffffffffffffffffffffffffffffffffffff1673ffffffffffffffffffffffffffffffffffffffff166370a08231336040518263ffffffff1660e01b8152600401611162919061209c565b602060405180830381865afa15801561117f573d6000803e3d6000fd5b505050506040513d601f19601f820116820180604052508101906111a39190612606565b8111156111e5576040517f08c379a00000000000000000000000000000000000000000000000000000000081526004016111dc9061291e565b60405180910390fd5b82826005546111f49190612335565b826004546112029190612335565b61120c9190612398565b101561124d576040517f08c379a00000000000000000000000000000000000000000000000000000000081526004016112449061298a565b60405180910390fd5b838260055461125c9190612335565b8260045461126a9190612335565b6112749190612398565b11156112b5576040517f08c379a00000000000000000000000000000000000000000000000000000000081526004016112ac906129f6565b60405180910390fd5b600360009054906101000a900473ffffffffffffffffffffffffffffffffffffffff1673ffffffffffffffffffffffffffffffffffffffff166323b872dd3330846040518463ffffffff1660e01b815260040161131493929190612875565b6020604051808303816000875af1158015611333573d6000803e3d6000fd5b505050506040513d601f19601f8201168201806040525081019061135791906125c4565b50600360009054906101000a900473ffffffffffffffffffffffffffffffffffffffff1673ffffffffffffffffffffffffffffffffffffffff166370a08231306040518263ffffffff1660e01b81526004016113b3919061209c565b602060405180830381865afa1580156113d0573d6000803e3d6000fd5b505050506040513d601f19601f820116820180604052508101906113f49190612606565b6004819055504760058190555060055460045461141191906123fd565b600a8190555060008160045461142791906123c9565b90506000805b6007805490508110156116a5573373ffffffffffffffffffffffffffffffffffffffff166007828154811061146557611464612b3a565b5b9060005260206000200160009054906101000a900473ffffffffffffffffffffffffffffffffffffffff1673ffffffffffffffffffffffffffffffffffffffff16036115675760019150600454600b54856114c091906123fd565b84600660003373ffffffffffffffffffffffffffffffffffffffff1673ffffffffffffffffffffffffffffffffffffffff1681526020019081526020016000205461150b91906123fd565b6115159190612335565b61151f9190612398565b600660003373ffffffffffffffffffffffffffffffffffffffff1673ffffffffffffffffffffffffffffffffffffffff16815260200190815260200160002081905550611692565b8260066000600784815481106115805761157f612b3a565b5b9060005260206000200160009054906101000a900473ffffffffffffffffffffffffffffffffffffffff1673ffffffffffffffffffffffffffffffffffffffff1673ffffffffffffffffffffffffffffffffffffffff16815260200190815260200160002060008282546115f491906123fd565b92505081905550600454600660006007848154811061161657611615612b3a565b5b9060005260206000200160009054906101000a900473ffffffffffffffffffffffffffffffffffffffff1673ffffffffffffffffffffffffffffffffffffffff1673ffffffffffffffffffffffffffffffffffffffff168152602001908152602001600020600082825461168a9190612398565b925050819055505b808061169d90612b69565b91505061142d565b508061176d576007339080600181540180825580915050600190039060005260206000200160009091909190916101000a81548173ffffffffffffffffffffffffffffffffffffffff021916908373ffffffffffffffffffffffffffffffffffffffff160217905550600454600b548461171f91906123fd565b6117299190612398565b600660003373ffffffffffffffffffffffffffffffffffffffff1673ffffffffffffffffffffffffffffffffffffffff168152602001908152602001600020819055505b505050505050565b600c60009054906101000a900460ff161561178f57600080fd5b6001600c60006101000a81548160ff021916908315150217905550600082116117ed576040517f08c379a00000000000000000000000000000000000000000000000000000000081526004016117e490612cb5565b60405180910390fd5b600360009054906101000a900473ffffffffffffffffffffffffffffffffffffffff1673ffffffffffffffffffffffffffffffffffffffff166370a08231336040518263ffffffff1660e01b8152600401611848919061209c565b602060405180830381865afa158015611865573d6000803e3d6000fd5b505050506040513d601f19601f820116820180604052508101906118899190612606565b8211156118cb576040517f08c379a00000000000000000000000000000000000000000000000000000000081526004016118c290612d21565b60405180910390fd5b6000826004546118db9190612335565b600a546118e89190612398565b6005546118f591906123c9565b905060006009546008548361190a91906123fd565b6119149190612398565b9050808261192291906123c9565b915060018260055461193491906123c9565b1015611975576040517f08c379a000000000000000000000000000000000000000000000000000000000815260040161196c90612db3565b60405180910390fd5b82846004546119849190612335565b8360055461199291906123c9565b61199c9190612398565b11156119dd576040517f08c379a00000000000000000000000000000000000000000000000000000000081526004016119d490612543565b60405180910390fd5b600360009054906101000a900473ffffffffffffffffffffffffffffffffffffffff1673ffffffffffffffffffffffffffffffffffffffff166323b872dd3330876040518463ffffffff1660e01b8152600401611a3c93929190612875565b6020604051808303816000875af1158015611a5b573d6000803e3d6000fd5b505050506040513d601f19601f82011682018060405250810190611a7f91906125c4565b50600360009054906101000a900473ffffffffffffffffffffffffffffffffffffffff1673ffffffffffffffffffffffffffffffffffffffff166370a08231306040518263ffffffff1660e01b8152600401611adb919061209c565b602060405180830381865afa158015611af8573d6000803e3d6000fd5b505050506040513d601f19601f82011682018060405250810190611b1c9190612606565b6004819055503373ffffffffffffffffffffffffffffffffffffffff166108fc839081150290604051600060405180830381858888f19350505050158015611b68573d6000803e3d6000fd5b50476005819055506000600c60006101000a81548160ff02191690831515021790555050505050565b600080600854600954915091509091565b611baa611cd9565b600073ffffffffffffffffffffffffffffffffffffffff168173ffffffffffffffffffffffffffffffffffffffff1603611c19576040517f08c379a0000000000000000000000000000000000000000000000000000000008152600401611c1090612e45565b60405180910390fd5b611c2281611d57565b50565b60018054611c3290612e94565b80601f0160208091040260200160405190810160405280929190818152602001828054611c5e90612e94565b8015611cab5780601f10611c8057610100808354040283529160200191611cab565b820191906000526020600020905b815481529060010190602001808311611c8e57829003601f168201915b505050505081565b600360009054906101000a900473ffffffffffffffffffffffffffffffffffffffff1681565b611ce1611f58565b73ffffffffffffffffffffffffffffffffffffffff16611cff611077565b73ffffffffffffffffffffffffffffffffffffffff1614611d55576040517f08c379a0000000000000000000000000000000000000000000000000000000008152600401611d4c90612f11565b60405180910390fd5b565b60008060009054906101000a900473ffffffffffffffffffffffffffffffffffffffff169050816000806101000a81548173ffffffffffffffffffffffffffffffffffffffff021916908373ffffffffffffffffffffffffffffffffffffffff1602179055508173ffffffffffffffffffffffffffffffffffffffff168173ffffffffffffffffffffffffffffffffffffffff167f8be0079c531659141344cd1fd0a4f28419497f9722a3daafe3b4186f6b6457e060405160405180910390a35050565b6007805490508110611e62576040517f08c379a0000000000000000000000000000000000000000000000000000000008152600401611e5990612fa3565b60405180910390fd5b60076001600780549050611e7691906123c9565b81548110611e8757611e86612b3a565b5b9060005260206000200160009054906101000a900473ffffffffffffffffffffffffffffffffffffffff1660078281548110611ec657611ec5612b3a565b5b9060005260206000200160006101000a81548173ffffffffffffffffffffffffffffffffffffffff021916908373ffffffffffffffffffffffffffffffffffffffff1602179055506007805480611f2057611f1f612fc3565b5b6001900381819060005260206000200160006101000a81549073ffffffffffffffffffffffffffffffffffffffff0219169055905550565b600033905090565b600080fd5b6000819050919050565b611f7881611f65565b8114611f8357600080fd5b50565b600081359050611f9581611f6f565b92915050565b600060208284031215611fb157611fb0611f60565b5b6000611fbf84828501611f86565b91505092915050565b60008060408385031215611fdf57611fde611f60565b5b6000611fed85828601611f86565b9250506020611ffe85828601611f86565b9150509250929050565b60008060006060848603121561202157612020611f60565b5b600061202f86828701611f86565b935050602061204086828701611f86565b925050604061205186828701611f86565b9150509250925092565b600073ffffffffffffffffffffffffffffffffffffffff82169050919050565b60006120868261205b565b9050919050565b6120968161207b565b82525050565b60006020820190506120b1600083018461208d565b92915050565b6120c081611f65565b82525050565b60006040820190506120db60008301856120b7565b6120e860208301846120b7565b9392505050565b6120f88161207b565b811461210357600080fd5b50565b600081359050612115816120ef565b92915050565b60006020828403121561213157612130611f60565b5b600061213f84828501612106565b91505092915050565b600081519050919050565b600082825260208201905092915050565b60005b83811015612182578082015181840152602081019050612167565b60008484015250505050565b6000601f19601f8301169050919050565b60006121aa82612148565b6121b48185612153565b93506121c4818560208601612164565b6121cd8161218e565b840191505092915050565b600060208201905081810360008301526121f2818461219f565b905092915050565b6000819050919050565b600061221f61221a6122158461205b565b6121fa565b61205b565b9050919050565b600061223182612204565b9050919050565b600061224382612226565b9050919050565b61225381612238565b82525050565b600060208201905061226e600083018461224a565b92915050565b7f4572726f723a204d7573742073776170206120706f73697469766520616d6f7560008201527f6e74206f66204554480000000000000000000000000000000000000000000000602082015250565b60006122d0602983612153565b91506122db82612274565b604082019050919050565b600060208201905081810360008301526122ff816122c3565b9050919050565b7f4e487b7100000000000000000000000000000000000000000000000000000000600052601160045260246000fd5b600061234082611f65565b915061234b83611f65565b925082820190508082111561236357612362612306565b5b92915050565b7f4e487b7100000000000000000000000000000000000000000000000000000000600052601260045260246000fd5b60006123a382611f65565b91506123ae83611f65565b9250826123be576123bd612369565b5b828204905092915050565b60006123d482611f65565b91506123df83611f65565b92508282039050818111156123f7576123f6612306565b5b92915050565b600061240882611f65565b915061241383611f65565b925082820261242181611f65565b9150828204841483151761243857612437612306565b5b5092915050565b7f4572726f723a2043616e6e6f74206465706c65746520546f6b656e207265736560008201527f727665732062656c6f77203120546f6b656e0000000000000000000000000000602082015250565b600061249b603283612153565b91506124a68261243f565b604082019050919050565b600060208201905081810360008301526124ca8161248e565b9050919050565b7f4572726f723a2045786368616e6765207261746520677265617465722074686160008201527f6e20737065636966696564207261746500000000000000000000000000000000602082015250565b600061252d603083612153565b9150612538826124d1565b604082019050919050565b6000602082019050818103600083015261255c81612520565b9050919050565b6000604082019050612578600083018561208d565b61258560208301846120b7565b9392505050565b60008115159050919050565b6125a18161258c565b81146125ac57600080fd5b50565b6000815190506125be81612598565b92915050565b6000602082840312156125da576125d9611f60565b5b60006125e8848285016125af565b91505092915050565b60008151905061260081611f6f565b92915050565b60006020828403121561261c5761261b611f60565b5b600061262a848285016125f1565b91505092915050565b7f546f6b656e20726573657276657320776173206e6f7420300000000000000000600082015250565b6000612669601883612153565b915061267482612633565b602082019050919050565b600060208201905081810360008301526126988161265c565b9050919050565b7f45544820726573657276657320776173206e6f7420302e000000000000000000600082015250565b60006126d5601783612153565b91506126e08261269f565b602082019050919050565b60006020820190508181036000830152612704816126c8565b9050919050565b7f4e6565642065746820746f2063726561746520706f6f6c2e0000000000000000600082015250565b6000612741601883612153565b915061274c8261270b565b602082019050919050565b6000602082019050818103600083015261277081612734565b9050919050565b7f4e6f74206861766520656e6f75676820746f6b656e7320746f2063726561746560008201527f2074686520706f6f6c0000000000000000000000000000000000000000000000602082015250565b60006127d3602983612153565b91506127de82612777565b604082019050919050565b60006020820190508181036000830152612802816127c6565b9050919050565b7f4e65656420746f6b656e7320746f2063726561746520706f6f6c2e0000000000600082015250565b600061283f601b83612153565b915061284a82612809565b602082019050919050565b6000602082019050818103600083015261286e81612832565b9050919050565b600060608201905061288a600083018661208d565b612897602083018561208d565b6128a460408301846120b7565b949350505050565b7f4572726f723a205573657220646f6573206e6f74206861766520656e6f75676860008201527f20746f6b656e7300000000000000000000000000000000000000000000000000602082015250565b6000612908602783612153565b9150612913826128ac565b604082019050919050565b60006020820190508181036000830152612937816128fb565b9050919050565b7f4572726f723a2042656c6f77206d696e2065786368616e676520726174650000600082015250565b6000612974601e83612153565b915061297f8261293e565b602082019050919050565b600060208201905081810360008301526129a381612967565b9050919050565b7f4572726f723a2041626f7665206d61782065786368616e676520726174650000600082015250565b60006129e0601e83612153565b91506129eb826129aa565b602082019050919050565b60006020820190508181036000830152612a0f816129d3565b9050919050565b7f4572726f723a2043616e6e6f74206465706c65746520746f6b656e207265736560008201527f7276657320746f20300000000000000000000000000000000000000000000000602082015250565b6000612a72602983612153565b9150612a7d82612a16565b604082019050919050565b60006020820190508181036000830152612aa181612a65565b9050919050565b7f4572726f723a2043616e6e6f74206465706c657465204554482072657365727660008201527f657320746f203000000000000000000000000000000000000000000000000000602082015250565b6000612b04602783612153565b9150612b0f82612aa8565b604082019050919050565b60006020820190508181036000830152612b3381612af7565b9050919050565b7f4e487b7100000000000000000000000000000000000000000000000000000000600052603260045260246000fd5b6000612b7482611f65565b91507fffffffffffffffffffffffffffffffffffffffffffffffffffffffffffffffff8203612ba657612ba5612306565b5b600182019050919050565b7f4572726f723a20537570706c79206f6620455448206e6f7420706f736974697660008201527f6500000000000000000000000000000000000000000000000000000000000000602082015250565b6000612c0d602183612153565b9150612c1882612bb1565b604082019050919050565b60006020820190508181036000830152612c3c81612c00565b9050919050565b7f4572726f723a204d7573742073776170206120706f73697469766520616d6f7560008201527f6e74206f6620546f6b656e730000000000000000000000000000000000000000602082015250565b6000612c9f602c83612153565b9150612caa82612c43565b604082019050919050565b60006020820190508181036000830152612cce81612c92565b9050919050565b7f4572726f723a20446f6e2774206861766520656e6f75676820746f6b656e7300600082015250565b6000612d0b601f83612153565b9150612d1682612cd5565b602082019050919050565b60006020820190508181036000830152612d3a81612cfe565b9050919050565b7f4572726f723a2043616e6e6f74206465706c657465204554482072657365727660008201527f65732062656c6f77203120455448000000000000000000000000000000000000602082015250565b6000612d9d602e83612153565b9150612da882612d41565b604082019050919050565b60006020820190508181036000830152612dcc81612d90565b9050919050565b7f4f776e61626c653a206e6577206f776e657220697320746865207a65726f206160008201527f6464726573730000000000000000000000000000000000000000000000000000602082015250565b6000612e2f602683612153565b9150612e3a82612dd3565b604082019050919050565b60006020820190508181036000830152612e5e81612e22565b9050919050565b7f4e487b7100000000000000000000000000000000000000000000000000000000600052602260045260246000fd5b60006002820490506001821680612eac57607f821691505b602082108103612ebf57612ebe612e65565b5b50919050565b7f4f776e61626c653a2063616c6c6572206973206e6f7420746865206f776e6572600082015250565b6000612efb602083612153565b9150612f0682612ec5565b602082019050919050565b60006020820190508181036000830152612f2a81612eee565b9050919050565b7f73706563696669656420696e646578206973206c6172676572207468616e207460008201527f6865206e756d626572206f66206c707300000000000000000000000000000000602082015250565b6000612f8d603083612153565b9150612f9882612f31565b604082019050919050565b60006020820190508181036000830152612fbc81612f80565b9050919050565b7f4e487b7100000000000000000000000000000000000000000000000000000000600052603160045260246000fdfea26469706673582212201006f265163cdd6718a6de07282603bd8459f7c1758091f220ff7eb7e26f184864736f6c63430008110033",
  "linkReferences": {},
  "deployedLinkReferences": {}
}