{
  "_format": "hh-sol-artifact-1",
  "contractName": "Splitwise",
  "sourceName": "contracts/mycontract.sol",
  "abi": [
    {
      "inputs": [
        {
          "internalType": "address",
          "name": "_creditor",
          "type": "address"
        },
        {
          "internalType": "int32",
          "name": "_amount",
          "type": "int32"
        }
      ],
      "name": "add_IOU",
      "outputs": [
        {
          "internalType": "bool",
          "name": "res",
          "type": "bool"
        }
      ],
      "stateMutability": "nonpayable",
      "type": "function"
    },
    {
      "inputs": [],
      "name": "getLedger",
      "outputs": [
        {
          "components": [
            {
              "components": [
                {
                  "internalType": "address",
                  "name": "creditor",
                  "type": "address"
                },
                {
                  "internalType": "int32",
                  "name": "amount",
                  "type": "int32"
                },
                {
                  "internalType": "uint256",
                  "name": "creditor_id",
                  "type": "uint256"
                },
                {
                  "internalType": "bool",
                  "name": "_valid",
                  "type": "bool"
                }
              ],
              "internalType": "struct Splitwise.IOU[]",
              "name": "IOUs",
              "type": "tuple[]"
            },
            {
              "internalType": "address",
              "name": "debtor",
              "type": "address"
            },
            {
              "internalType": "uint256",
              "name": "id",
              "type": "uint256"
            },
            {
              "internalType": "bool",
              "name": "_valid",
              "type": "bool"
            }
          ],
          "internalType": "struct Splitwise.Debtor[]",
          "name": "_ledgerArr",
          "type": "tuple[]"
        }
      ],
      "stateMutability": "view",
      "type": "function"
    },
    {
      "inputs": [
        {
          "internalType": "address",
          "name": "debtor",
          "type": "address"
        },
        {
          "internalType": "address",
          "name": "creditor",
          "type": "address"
        }
      ],
      "name": "lookup",
      "outputs": [
        {
          "internalType": "int32",
          "name": "ret",
          "type": "int32"
        }
      ],
      "stateMutability": "view",
      "type": "function"
    }
  ],
  "bytecode": "0x608060405234801561001057600080fd5b50611b3b806100206000396000f3fe608060405234801561001057600080fd5b50600436106100415760003560e01c8063713584a614610046578063ada187c414610076578063f36f235d146100a6575b600080fd5b610060600480360381019061005b91906115b8565b6100c4565b60405161006d9190611614565b60405180910390f35b610090600480360381019061008b919061165b565b61015a565b60405161009d91906116b6565b60405180910390f35b6100ae6111e6565b6040516100bb9190611940565b60405180910390f35b60008060008473ffffffffffffffffffffffffffffffffffffffff1673ffffffffffffffffffffffffffffffffffffffff16815260200190815260200160002060008373ffffffffffffffffffffffffffffffffffffffff1673ffffffffffffffffffffffffffffffffffffffff16815260200190815260200160002060000160149054906101000a900460030b905092915050565b60008273ffffffffffffffffffffffffffffffffffffffff163373ffffffffffffffffffffffffffffffffffffffff16036101ca576040517f08c379a00000000000000000000000000000000000000000000000000000000081526004016101c1906119bf565b60405180910390fd5b60001515600160003373ffffffffffffffffffffffffffffffffffffffff1673ffffffffffffffffffffffffffffffffffffffff16815260200190815260200160002060030160009054906101000a900460ff161515036106e357600060405180608001604052808573ffffffffffffffffffffffffffffffffffffffff1681526020018460030b8152602001600081526020016001151581525090506000600160003373ffffffffffffffffffffffffffffffffffffffff1673ffffffffffffffffffffffffffffffffffffffff1681526020019081526020016000209050816000803373ffffffffffffffffffffffffffffffffffffffff1673ffffffffffffffffffffffffffffffffffffffff16815260200190815260200160002060008773ffffffffffffffffffffffffffffffffffffffff1673ffffffffffffffffffffffffffffffffffffffff16815260200190815260200160002060008201518160000160006101000a81548173ffffffffffffffffffffffffffffffffffffffff021916908373ffffffffffffffffffffffffffffffffffffffff16021790555060208201518160000160146101000a81548163ffffffff021916908360030b63ffffffff1602179055506040820151816001015560608201518160020160006101000a81548160ff021916908315150217905550905050338160010160006101000a81548173ffffffffffffffffffffffffffffffffffffffff021916908373ffffffffffffffffffffffffffffffffffffffff1602179055508060000182908060018154018082558091505060019003906000526020600020906003020160009091909190915060008201518160000160006101000a81548173ffffffffffffffffffffffffffffffffffffffff021916908373ffffffffffffffffffffffffffffffffffffffff16021790555060208201518160000160146101000a81548163ffffffff021916908360030b63ffffffff1602179055506040820151816001015560608201518160020160006101000a81548160ff0219169083151502179055505050600280549050816002018190555060018160030160006101000a81548160ff0219169083151502179055506002819080600181540180825580915050600190039060005260206000209060040201600090919091909150600082018160000190805461053f9291906113b7565b506001820160009054906101000a900473ffffffffffffffffffffffffffffffffffffffff168160010160006101000a81548173ffffffffffffffffffffffffffffffffffffffff021916908373ffffffffffffffffffffffffffffffffffffffff160217905550600282015481600201556003820160009054906101000a900460ff168160030160006101000a81548160ff021916908315150217905550505080600160003373ffffffffffffffffffffffffffffffffffffffff1673ffffffffffffffffffffffffffffffffffffffff16815260200190815260200160002060008201816000019080546106369291906113b7565b506001820160009054906101000a900473ffffffffffffffffffffffffffffffffffffffff168160010160006101000a81548173ffffffffffffffffffffffffffffffffffffffff021916908373ffffffffffffffffffffffffffffffffffffffff160217905550600282015481600201556003820160009054906101000a900460ff168160030160006101000a81548160ff0219169083151502179055509050506001925050506111e0565b600015156000803373ffffffffffffffffffffffffffffffffffffffff1673ffffffffffffffffffffffffffffffffffffffff16815260200190815260200160002060008573ffffffffffffffffffffffffffffffffffffffff1673ffffffffffffffffffffffffffffffffffffffff16815260200190815260200160002060020160009054906101000a900460ff16151503610a7757600060405180608001604052808573ffffffffffffffffffffffffffffffffffffffff1681526020018460030b81526020016002600160003373ffffffffffffffffffffffffffffffffffffffff1673ffffffffffffffffffffffffffffffffffffffff1681526020019081526020016000206002015481548110610802576108016119df565b5b9060005260206000209060040201600001805490508152602001600115158152509050806000803373ffffffffffffffffffffffffffffffffffffffff1673ffffffffffffffffffffffffffffffffffffffff16815260200190815260200160002060008673ffffffffffffffffffffffffffffffffffffffff1673ffffffffffffffffffffffffffffffffffffffff16815260200190815260200160002060008201518160000160006101000a81548173ffffffffffffffffffffffffffffffffffffffff021916908373ffffffffffffffffffffffffffffffffffffffff16021790555060208201518160000160146101000a81548163ffffffff021916908360030b63ffffffff1602179055506040820151816001015560608201518160020160006101000a81548160ff0219169083151502179055509050506002600160003373ffffffffffffffffffffffffffffffffffffffff1673ffffffffffffffffffffffffffffffffffffffff1681526020019081526020016000206002015481548110610995576109946119df565b5b906000526020600020906004020160000181908060018154018082558091505060019003906000526020600020906003020160009091909190915060008201518160000160006101000a81548173ffffffffffffffffffffffffffffffffffffffff021916908373ffffffffffffffffffffffffffffffffffffffff16021790555060208201518160000160146101000a81548163ffffffff021916908360030b63ffffffff1602179055506040820151816001015560608201518160020160006101000a81548160ff021916908315150217905550505060019150506111e0565b6000826000803373ffffffffffffffffffffffffffffffffffffffff1673ffffffffffffffffffffffffffffffffffffffff16815260200190815260200160002060008673ffffffffffffffffffffffffffffffffffffffff1673ffffffffffffffffffffffffffffffffffffffff16815260200190815260200160002060000160149054906101000a900460030b610b109190611a3d565b60030b1215610b54576040517f08c379a0000000000000000000000000000000000000000000000000000000008152600401610b4b90611ae5565b60405180910390fd5b816000803373ffffffffffffffffffffffffffffffffffffffff1673ffffffffffffffffffffffffffffffffffffffff16815260200190815260200160002060008573ffffffffffffffffffffffffffffffffffffffff1673ffffffffffffffffffffffffffffffffffffffff16815260200190815260200160002060000160149054906101000a900460030b610beb9190611a3d565b6000803373ffffffffffffffffffffffffffffffffffffffff1673ffffffffffffffffffffffffffffffffffffffff16815260200190815260200160002060008573ffffffffffffffffffffffffffffffffffffffff1673ffffffffffffffffffffffffffffffffffffffff16815260200190815260200160002060000160146101000a81548163ffffffff021916908360030b63ffffffff160217905550816002600160003373ffffffffffffffffffffffffffffffffffffffff1673ffffffffffffffffffffffffffffffffffffffff1681526020019081526020016000206002015481548110610ce157610ce06119df565b5b90600052602060002090600402016000016000803373ffffffffffffffffffffffffffffffffffffffff1673ffffffffffffffffffffffffffffffffffffffff16815260200190815260200160002060008673ffffffffffffffffffffffffffffffffffffffff1673ffffffffffffffffffffffffffffffffffffffff1681526020019081526020016000206001015481548110610d8257610d816119df565b5b906000526020600020906003020160000160148282829054906101000a900460030b610dae9190611a3d565b92506101000a81548163ffffffff021916908360030b63ffffffff16021790555060008060003373ffffffffffffffffffffffffffffffffffffffff1673ffffffffffffffffffffffffffffffffffffffff16815260200190815260200160002060008573ffffffffffffffffffffffffffffffffffffffff1673ffffffffffffffffffffffffffffffffffffffff16815260200190815260200160002060000160149054906101000a900460030b60030b036110225760008060003373ffffffffffffffffffffffffffffffffffffffff1673ffffffffffffffffffffffffffffffffffffffff16815260200190815260200160002060008573ffffffffffffffffffffffffffffffffffffffff1673ffffffffffffffffffffffffffffffffffffffff16815260200190815260200160002060020160006101000a81548160ff02191690831515021790555060006002600160003373ffffffffffffffffffffffffffffffffffffffff1673ffffffffffffffffffffffffffffffffffffffff1681526020019081526020016000206002015481548110610f5457610f536119df565b5b90600052602060002090600402016000016000803373ffffffffffffffffffffffffffffffffffffffff1673ffffffffffffffffffffffffffffffffffffffff16815260200190815260200160002060008673ffffffffffffffffffffffffffffffffffffffff1673ffffffffffffffffffffffffffffffffffffffff1681526020019081526020016000206001015481548110610ff557610ff46119df565b5b906000526020600020906003020160020160006101000a81548160ff0219169083151502179055506111db565b60016000803373ffffffffffffffffffffffffffffffffffffffff1673ffffffffffffffffffffffffffffffffffffffff16815260200190815260200160002060008573ffffffffffffffffffffffffffffffffffffffff1673ffffffffffffffffffffffffffffffffffffffff16815260200190815260200160002060020160006101000a81548160ff02191690831515021790555060016002600160003373ffffffffffffffffffffffffffffffffffffffff1673ffffffffffffffffffffffffffffffffffffffff1681526020019081526020016000206002015481548110611111576111106119df565b5b90600052602060002090600402016000016000803373ffffffffffffffffffffffffffffffffffffffff1673ffffffffffffffffffffffffffffffffffffffff16815260200190815260200160002060008673ffffffffffffffffffffffffffffffffffffffff1673ffffffffffffffffffffffffffffffffffffffff16815260200190815260200160002060010154815481106111b2576111b16119df565b5b906000526020600020906003020160020160006101000a81548160ff0219169083151502179055505b600190505b92915050565b60606002805480602002602001604051908101604052809291908181526020016000905b828210156113ae578382906000526020600020906004020160405180608001604052908160008201805480602002602001604051908101604052809291908181526020016000905b8282101561131c57838290600052602060002090600302016040518060800160405290816000820160009054906101000a900473ffffffffffffffffffffffffffffffffffffffff1673ffffffffffffffffffffffffffffffffffffffff1673ffffffffffffffffffffffffffffffffffffffff1681526020016000820160149054906101000a900460030b60030b60030b8152602001600182015481526020016002820160009054906101000a900460ff16151515158152505081526020019060010190611252565b5050505081526020016001820160009054906101000a900473ffffffffffffffffffffffffffffffffffffffff1673ffffffffffffffffffffffffffffffffffffffff1673ffffffffffffffffffffffffffffffffffffffff168152602001600282015481526020016003820160009054906101000a900460ff1615151515815250508152602001906001019061120a565b50505050905090565b8280548282559060005260206000209060030281019282156114d35760005260206000209160030282015b828111156114d25782826000820160009054906101000a900473ffffffffffffffffffffffffffffffffffffffff168160000160006101000a81548173ffffffffffffffffffffffffffffffffffffffff021916908373ffffffffffffffffffffffffffffffffffffffff1602179055506000820160149054906101000a900460030b8160000160146101000a81548163ffffffff021916908360030b63ffffffff160217905550600182015481600101556002820160009054906101000a900460ff168160020160006101000a81548160ff0219169083151502179055505050916003019190600301906113e2565b5b5090506114e091906114e4565b5090565b5b8082111561155157600080820160006101000a81549073ffffffffffffffffffffffffffffffffffffffff02191690556000820160146101000a81549063ffffffff021916905560018201600090556002820160006101000a81549060ff0219169055506003016114e5565b5090565b600080fd5b600073ffffffffffffffffffffffffffffffffffffffff82169050919050565b60006115858261155a565b9050919050565b6115958161157a565b81146115a057600080fd5b50565b6000813590506115b28161158c565b92915050565b600080604083850312156115cf576115ce611555565b5b60006115dd858286016115a3565b92505060206115ee858286016115a3565b9150509250929050565b60008160030b9050919050565b61160e816115f8565b82525050565b60006020820190506116296000830184611605565b92915050565b611638816115f8565b811461164357600080fd5b50565b6000813590506116558161162f565b92915050565b6000806040838503121561167257611671611555565b5b6000611680858286016115a3565b925050602061169185828601611646565b9150509250929050565b60008115159050919050565b6116b08161169b565b82525050565b60006020820190506116cb60008301846116a7565b92915050565b600081519050919050565b600082825260208201905092915050565b6000819050602082019050919050565b600081519050919050565b600082825260208201905092915050565b6000819050602082019050919050565b6117328161157a565b82525050565b611741816115f8565b82525050565b6000819050919050565b61175a81611747565b82525050565b6117698161169b565b82525050565b6080820160008201516117856000850182611729565b5060208201516117986020850182611738565b5060408201516117ab6040850182611751565b5060608201516117be6060850182611760565b50505050565b60006117d0838361176f565b60808301905092915050565b6000602082019050919050565b60006117f4826116fd565b6117fe8185611708565b935061180983611719565b8060005b8381101561183a57815161182188826117c4565b975061182c836117dc565b92505060018101905061180d565b5085935050505092915050565b6000608083016000830151848203600086015261186482826117e9565b91505060208301516118796020860182611729565b50604083015161188c6040860182611751565b50606083015161189f6060860182611760565b508091505092915050565b60006118b68383611847565b905092915050565b6000602082019050919050565b60006118d6826116d1565b6118e081856116dc565b9350836020820285016118f2856116ed565b8060005b8581101561192e578484038952815161190f85826118aa565b945061191a836118be565b925060208a019950506001810190506118f6565b50829750879550505050505092915050565b6000602082019050818103600083015261195a81846118cb565b905092915050565b600082825260208201905092915050565b7f43616e6e6f74206f77657320746f207468656d73656c66000000000000000000600082015250565b60006119a9601783611962565b91506119b482611973565b602082019050919050565b600060208201905081810360008301526119d88161199c565b9050919050565b7f4e487b7100000000000000000000000000000000000000000000000000000000600052603260045260246000fd5b7f4e487b7100000000000000000000000000000000000000000000000000000000600052601160045260246000fd5b6000611a48826115f8565b9150611a53836115f8565b925082820190507fffffffffffffffffffffffffffffffffffffffffffffffffffffffff800000008112637fffffff82131715611a9357611a92611a0e565b5b92915050565b7f747820726573756c747320746f206e6567617469766520494f552e0000000000600082015250565b6000611acf601b83611962565b9150611ada82611a99565b602082019050919050565b60006020820190508181036000830152611afe81611ac2565b905091905056fea264697066735822122082bac4063242f71f7a4306488e1bc0f44fb78c81ba65b3ace40efd950fa1f66f64736f6c63430008110033",
  "linkReferences": {},
  "deployedLinkReferences": {}
}